:100EE400202052464944204261736564202020201A
:100EF40000417474656E64616E6365205379737424
:100F04006D00506C61636520596F75722043617286
:100F1400643A00596F7572204944204E6F2E20693F
:100F2400733A0036394135463541320020417474F4
:100F3400656E64616E636520002052656769737431
:100F440065726564002053747564656E74312000A5
:100F54004174746E642E204E6F2E3A200025640076
:100F64004144444335373332002053747564656E0D
:100F740074322000496E76616C6964204361726446
:010F8400006C
:03112700012B0099
:04103F007F2C7E0183
:10104300E4FDFCC3ED9FEE6480F8EC6480985015DA
:10105300E4FBFA0BBB00010ABA04F8BBFBF50DBDB8
:0510630000010C80DE1D
:011068002265
:0E10E800D291D2907F057E00121043C290225A
:1010D500A907E954F0F5A01210E8E9C454F0F5A009
:0310E5000210E80E
:0E10F600C291D2907F057E00121043C290225C
:091090007FC87E001210437F01AD
:10109900A907E954F0F5A01210F6E9C454F0F5A037
:0310A9000210F63C
:0B1011007F011210997BFF7A0F7930ED
:10101C008B088A09890AAB08AA09A90A120B5CFF7A
:10102C0060101210D57401250AF50AE43509F5098A
:03103C0080E4222B
:1010C1007F021210997F281210997F0E1210997FBA
:0410D100010210996F
:0C110400758920759850758DFDD28E22E3
:0B111C003098FD85992BC298AF2B2264
:1010AC00D2B2C2B312103FC2B2D2B3121043C2B208
:0510BC00C2B3C2922244
:0C111000C2B2C2B3D29212103FC29222AF
:100D8500C292C2B2C2B31211041210C17BFF7A0E15
:100D950079E412101C7FC01210997BFF7A0E79F549
:100DA50012101C7F907E011210437F011210997B57
:100DB500FF7A0F790612101C7FC0121099E4F532E4
:100DC50012111CEF600CAE32053274232EF8A60703
:100DD50080EE7F011210997BFF7A0F791712101C94
:100DE5007FC0121099E4F53274232532F8E6600FBE
:100DF500AF32053274232FF8E6FF1210D580E97F54
:100E0500647E0012104378237C007D007BFF7A0FFF
:100E15007927120CF3EF7044052DE52D7002052C92
:100E25001210117FC01210997BFF7A0F793D1210B5
:100E35001C1210907BFF7A0F794912101C7FC0128B
:100E450010997BFF7A0F795412101C750BFF750CE6
:100E55000F750D61852C0E852D0F805478237C0030
:100E65007D007BFF7A0F7964120CF3EF705A052F22
:100E7500E52F7002052E1210117FC01210997BFF0D
:100E85007A0F793D12101C1210907BFF7A0F796D45
:100E950012101C7FC01210997BFF7A0F7954121023
:100EA5001C750BFF750C0F750D61852E0E852F0FAB
:100EB5007B007A00792212085C7B007A0079221285
:100EC500101C1210AC020DAF7F011210997BFF7A36
:0F0ED5000F797812101C12111012103F020DAF7E
:03000000020F8567
:0C0F8500787FE4F6D8FD758132020FCCB5
:100B5C00BB010689828A83E0225002E722BBFE0297
:090B6C00E32289828A83E49322CA
:10080000E517240BF8E60517227808300702780B65
:10081000E475F001120D4F020B5C2000EB7F2ED22D
:10082000008018EF540F2490D43440D4FF30040BD0
:10083000EF24BFB41A0050032461FFE518600215CD
:1008400018051BE51B7002051A30070D7808E475C2
:10085000F001120D4FEF020D3D0210697403D20733
:100860008003E4C207F5178B088A09890AE4F518A2
:10087000F51AF51BE51860077F2012083B80F57517
:1008800019FFC201C200C202C203C205C206C208E9
:10089000120809FF700D3007057F0012084CAF1BCE
:1008A000AE1A22B4255FC2D5C204120809FF24D0B3
:1008B000B40A00501A75F00A781830D50508B6FF4A
:1008C0000106C6A426F620D5047002D20380D924DE
:1008D000CFB41A00EF5004C2E5D204020A4CD20190
:1008E00080C6D20080C0D20280BCD2D580BAD205E8
:1008F00080B47F2012083B2002077401B518004025
:10090000F1120800FF12083B020874D208D20680D8
:1009100095120800FB120800FA120800F94A4B7001
:1009200006791D7A0B7BFF20022EE518602A7E00D7
:100930008E82758300120D1060060EEE651970F040
:10094000C2D5EBC0E0EAC0E0E9C0E0EE120A93D005
:10095000E0F9D0E0FAD0E0FB120B5CFF60AAEBC03C
:10096000E0EAC0E0E9C0E012083BD0E02401F9D0A1
:10097000E03400FAD0E0FBE5190460DCD519D98039
:10098000877BFF7A0A798FD202809C791080027966
:1009900008C206C2088008D2D5790A8004790AC242
:1009A000D5E519047002F519E4FAFDFEFF120800FE
:1009B000FC7B08200113120800FD7B1030000A1296
:1009C0000800FE120800FF7B20EC3382D592D55040
:1009D00013C3E43000069FFFE49EFEE42001039D64
:1009E000FDE49CFCE4CBF8C201EC700CCFCECDCC86
:1009F000E824F8F870F38017C3EF33FFEE33FEED11
:100A000033FDEC33FCEB33FB994002FB0FD8E9EBF1
:100A1000300105F8D0E0C448B201C0E00AEC4D4E08
:100A20004F78207B0070C2EAB5190040BCC0E012CC
:100A30000A95D0F0D0E0200104C4C0E0C4B201C0E7
:100A4000F0120824D0F0D5F0EB020874120D5F0903
:100A50001153098B5808E24C08DE42098F4F099761
:0F0A60004409974908F743099D550981460981C3
:100A6F00450981470B3D5008E62D08EA2E090D2B4D
:100A7F0008EE23090B200B262A08A64800000905BB
:100A8F003F3F3F00790AA2D5200314300509B91062
:100A9F00020404B9080104A2D52006025001042063
:100AAF0002689202B518005034C0E07F203003195D
:100ABF007F30A20272067205500F120AECC202C2F8
:100ACF0006C205C2087F30800F300503E9C0E0126F
:100ADF00083B300503D0E0F9D0E0B518CC3005174E
:100AEF007F30B9100C12083B7F583004077F788095
:100AFF0003B9080312083B3002057F2D02083B7F24
:100B0F00202008F87F2B2006F322920280CF286E38
:100B1F00756C6C2900D2011208003001F8C20178FF
:100B2F001830D50108F60208A62D5043495812086F
:100B3F00002403B405004001E4900B389312082CF5
:0D0B4F00743A12082CD20375180402098BA9
:100B7500E3F5F009E208B5F06D606B80F3E3F5F09D
:100B850009E608B5F060605E80F387F009E608B510
:100B9500F054605280F487F009E208B5F0486046E9
:100BA50080F488828C8387F009E0A3B5F03860363D
:100BB50080F488828C8387F009E493A3B5F02760DD
:100BC5002580F388828C83E3F5F009E0A3B5F01660
:100BD500601480F388828C83E3F5F009E493A3B570
:100BE500F004600280F2020CA0808580E7808E8090
:100BF500D2803C8015806C807E809B80B5808B8008
:100C0500A1804F8070803A020CAC89828A83ECFA0D
:100C1500E493F5F0A3C8C582C8CCC583CCE493A3FF
:100C2500C8C582C8CCC583CCB5F070606E80E1893B
:100C3500828A83E493F5F0A3E208B5F05E605C80F8
:100C4500F289828A83E0F5F0A3E608B5F04D604BA2
:100C550080F389828A83E0F5F0A3E208B5F03C6071
:100C65003A80F389828A83E493F5F0A3E608B5F028
:100C75002A602880F2805389828A83ECFAE493F50E
:100C8500F0A3C8C582C8CCC583CCE0A3C8C582C8BB
:100C9500CCC583CCB5F004600280E27FFFB5F002DD
:100CA5000F2240027F012289828A83ECFAE0F5F067
:100CB500A3C8C582C8CCC583CCE0A3C8C582C8CCAF
:100CC500C583CCB5F0D560D380E389828A83ECFAFD
:100CD500E0F5F0A3C8C582C8CCC583CCE493A3C80E
:100CE500C582C8CCC583CCB5F0B160AF80E288F0D1
:100CF500ED2402B4040050A3F582EB2402B40400F1
:0B0D050050992323458223900BEE73CE
:100F9100020D85E493A3F8E493A34003F68001F2E4
:100FA10008DFF48029E493A3F85407240CC8C33361
:100FB100C4540F4420C8834004F456800146F6DF30
:100FC100E4800B0102040810204080901127E47E88
:100FD100019360BCA3FF543F30E509541FFEE49325
:100FE100A360010ECF54C025E060A840B8E493A3EC
:100FF100FAE493A3F8E493A3C8C582C8CAC583CA17
:10100100F0A3C8C582C8CAC583CADFE9DEE780BECE
:01112A0000C4
:100D1000BB010CE58229F582E5833AF583E0225098
:100D200006E92582F8E622BBFE06E92582F8E222E2
:0D0D3000E58229F582E5833AF583E49322FC
:100D3D00BB010689828A83F0225002F722BBFE0195
:020D4D00F3228F
:100D4F00FAE6FB0808E6F925F0F618E6CA3AF622A5
:100D5F00D083D082F8E4937012740193700DA3A323
:100D6F0093F8740193F5828883E473740293686037
:060D7F00EFA3A3A380DF37
:10106900EFB40A07740D121074740A309811A89914
:10107900B8130CC2983098FDA899C298B811F630E7
:0710890099FDC299F59922BF
:00000001FF
